{
    "contractName": "EquityContract",
    "abi": [
        {
            "anonymous": false,
            "inputs": [
                {
                    "indexed": false,
                    "internalType": "address",
                    "name": "owner",
                    "type": "address"
                },
                {
                    "indexed": false,
                    "internalType": "string",
                    "name": "name",
                    "type": "string"
                },
                {
                    "indexed": false,
                    "internalType": "uint256",
                    "name": "companyId",
                    "type": "uint256"
                }
            ],
            "name": "CompanyRegistered",
            "type": "event"
        },
        {
            "anonymous": false,
            "inputs": [
                {
                    "indexed": true,
                    "internalType": "address",
                    "name": "previousOwner",
                    "type": "address"
                },
                {
                    "indexed": true,
                    "internalType": "address",
                    "name": "newOwner",
                    "type": "address"
                }
            ],
            "name": "OwnershipTransferred",
            "type": "event"
        },
        {
            "anonymous": false,
            "inputs": [
                {
                    "indexed": false,
                    "internalType": "address",
                    "name": "previousOwner",
                    "type": "address"
                },
                {
                    "indexed": false,
                    "internalType": "address",
                    "name": "newOwner",
                    "type": "address"
                },
                {
                    "indexed": false,
                    "internalType": "uint256",
                    "name": "companyId",
                    "type": "uint256"
                },
                {
                    "indexed": false,
                    "internalType": "uint256",
                    "name": "shares",
                    "type": "uint256"
                }
            ],
            "name": "SharesTransfer",
            "type": "event"
        },
        {
            "inputs": [
                {
                    "internalType": "uint256",
                    "name": "",
                    "type": "uint256"
                }
            ],
            "name": "companyIdToOwner",
            "outputs": [
                {
                    "internalType": "address",
                    "name": "",
                    "type": "address"
                }
            ],
            "stateMutability": "view",
            "type": "function"
        },
        {
            "inputs": [],
            "name": "companyRegistractionFee",
            "outputs": [
                {
                    "internalType": "uint256",
                    "name": "",
                    "type": "uint256"
                }
            ],
            "stateMutability": "view",
            "type": "function"
        },
        {
            "inputs": [
                {
                    "internalType": "uint256",
                    "name": "",
                    "type": "uint256"
                },
                {
                    "internalType": "uint256",
                    "name": "",
                    "type": "uint256"
                }
            ],
            "name": "companyShareholders",
            "outputs": [
                {
                    "internalType": "string",
                    "name": "name",
                    "type": "string"
                },
                {
                    "internalType": "uint256",
                    "name": "shareAmount",
                    "type": "uint256"
                },
                {
                    "internalType": "uint256",
                    "name": "companyId",
                    "type": "uint256"
                },
                {
                    "internalType": "uint256",
                    "name": "shareholderId",
                    "type": "uint256"
                }
            ],
            "stateMutability": "view",
            "type": "function"
        },
        {
            "inputs": [
                {
                    "internalType": "string",
                    "name": "_name",
                    "type": "string"
                },
                {
                    "internalType": "bool",
                    "name": "_isPublic",
                    "type": "bool"
                },
                {
                    "internalType": "uint256",
                    "name": "_shares",
                    "type": "uint256"
                },
                {
                    "internalType": "uint256",
                    "name": "_sharePrice",
                    "type": "uint256"
                }
            ],
            "name": "createCompany",
            "outputs": [],
            "stateMutability": "payable",
            "type": "function"
        },
        {
            "inputs": [
                {
                    "internalType": "uint256",
                    "name": "_companyId",
                    "type": "uint256"
                }
            ],
            "name": "getMarketCap",
            "outputs": [
                {
                    "internalType": "uint256",
                    "name": "",
                    "type": "uint256"
                }
            ],
            "stateMutability": "view",
            "type": "function"
        },
        {
            "inputs": [],
            "name": "isOwner",
            "outputs": [
                {
                    "internalType": "bool",
                    "name": "",
                    "type": "bool"
                }
            ],
            "stateMutability": "view",
            "type": "function"
        },
        {
            "inputs": [],
            "name": "owner",
            "outputs": [
                {
                    "internalType": "address",
                    "name": "",
                    "type": "address"
                }
            ],
            "stateMutability": "view",
            "type": "function"
        },
        {
            "inputs": [
                {
                    "internalType": "address",
                    "name": "",
                    "type": "address"
                }
            ],
            "name": "ownerToCompany",
            "outputs": [
                {
                    "internalType": "string",
                    "name": "name",
                    "type": "string"
                },
                {
                    "internalType": "bool",
                    "name": "isPublic",
                    "type": "bool"
                },
                {
                    "internalType": "uint256",
                    "name": "shares",
                    "type": "uint256"
                },
                {
                    "internalType": "uint256",
                    "name": "totalShares",
                    "type": "uint256"
                },
                {
                    "internalType": "uint256",
                    "name": "sharePrice",
                    "type": "uint256"
                },
                {
                    "internalType": "uint256",
                    "name": "companyId",
                    "type": "uint256"
                }
            ],
            "stateMutability": "view",
            "type": "function"
        },
        {
            "inputs": [],
            "name": "renounceOwnership",
            "outputs": [],
            "stateMutability": "nonpayable",
            "type": "function"
        },
        {
            "inputs": [
                {
                    "internalType": "uint256",
                    "name": "_companyId",
                    "type": "uint256"
                },
                {
                    "internalType": "uint256",
                    "name": "_newSharePrice",
                    "type": "uint256"
                }
            ],
            "name": "setSharePrice",
            "outputs": [],
            "stateMutability": "nonpayable",
            "type": "function"
        },
        {
            "inputs": [
                {
                    "internalType": "address",
                    "name": "newOwner",
                    "type": "address"
                }
            ],
            "name": "transferOwnership",
            "outputs": [],
            "stateMutability": "nonpayable",
            "type": "function"
        },
        {
            "inputs": [
                {
                    "internalType": "address",
                    "name": "_to",
                    "type": "address"
                },
                {
                    "internalType": "uint256",
                    "name": "_shares",
                    "type": "uint256"
                },
                {
                    "internalType": "uint256",
                    "name": "_companyId",
                    "type": "uint256"
                },
                {
                    "internalType": "string",
                    "name": "_shareholderName",
                    "type": "string"
                }
            ],
            "name": "transferSharesCompanyToShareholder",
            "outputs": [],
            "stateMutability": "nonpayable",
            "type": "function"
        }
    ],
    "bytecode": "608060405266b1a2bc2ec5000060015534801561001b57600080fd5b50600080546001600160a01b0319163390811782556040519091907f8be0079c531659141344cd1fd0a4f28419497f9722a3daafe3b4186f6b6457e0908290a36110958061006a6000396000f3fe6080604052600436106100c75760003560e01c80638da5cb5b116100745780638f8d8a951161004e5780638f8d8a9514610246578063a9a4b7761461025c578063f2fde38b1461027c57600080fd5b80638da5cb5b146101ea5780638e5ae3b5146102085780638f32d59b1461021b57600080fd5b806336a16c5d116100a557806336a16c5d14610165578063715018a6146101875780637901604a1461019c57600080fd5b806305a0860f146100cc5780631cd322c114610107578063283c9c3114610137575b600080fd5b3480156100d857600080fd5b506100ec6100e7366004610cd6565b61029c565b6040516100fe96959493929190610ec5565b60405180910390f35b34801561011357600080fd5b50610127610122366004610dcf565b61035d565b6040516100fe9493929190610f01565b34801561014357600080fd5b50610157610152366004610db6565b610432565b6040519081526020016100fe565b34801561017157600080fd5b50610185610180366004610cf1565b610473565b005b34801561019357600080fd5b50610185610856565b3480156101a857600080fd5b506101d26101b7366004610db6565b6003602052600090815260409020546001600160a01b031681565b6040516001600160a01b0390911681526020016100fe565b3480156101f657600080fd5b506000546001600160a01b03166101d2565b610185610216366004610d52565b6108c4565b34801561022757600080fd5b506000546001600160a01b0316331460405190151581526020016100fe565b34801561025257600080fd5b5061015760015481565b34801561026857600080fd5b50610185610277366004610dcf565b610a51565b34801561028857600080fd5b50610185610297366004610cd6565b610a8d565b6002602052600090815260409020805481906102b790610fcc565b80601f01602080910402602001604051908101604052809291908181526020018280546102e390610fcc565b80156103305780601f1061030557610100808354040283529160200191610330565b820191906000526020600020905b81548152906001019060200180831161031357829003601f168201915b5050506001840154600285015460038601546004870154600590970154959660ff90931695919450925086565b6004602052816000526040600020818154811061037957600080fd5b90600052602060002090600402016000915091505080600001805461039d90610fcc565b80601f01602080910402602001604051908101604052809291908181526020018280546103c990610fcc565b80156104165780601f106103eb57610100808354040283529160200191610416565b820191906000526020600020905b8154815290600101906020018083116103f957829003601f168201915b5050505050908060010154908060020154908060030154905084565b6000818152600360209081526040808320546001600160a01b03168084526002928390529083206004810154920154909161046c91610f48565b9392505050565b60008281526003602052604090205482906001600160a01b0316331461049857600080fd5b336000908152600260205260409020600501548314610518576040517f08c379a000000000000000000000000000000000000000000000000000000000815260206004820152601160248201527f6e6f20636f6d70616e7920666f756e642e00000000000000000000000000000060448201526064015b60405180910390fd5b33600090815260026020819052604090912001548411156105bb576040517f08c379a000000000000000000000000000000000000000000000000000000000815260206004820152602d60248201527f796f752063616e6e6f74207472616e73666572206d6f7265207368617265732060448201527f7468616e20796f75206861766500000000000000000000000000000000000000606482015260840161050f565b33600090815260026020819052604090912001546105da908590610f85565b33600090815260026020818152604080842090920193909355858252600483528082208054825181860281018601909352808352929391929091849084015b828210156106fb578382906000526020600020906004020160405180608001604052908160008201805461064c90610fcc565b80601f016020809104026020016040519081016040528092919081815260200182805461067890610fcc565b80156106c55780601f1061069a576101008083540402835291602001916106c5565b820191906000526020600020905b8154815290600101906020018083116106a857829003601f168201915b50505050508152602001600182015481526020016002820154815260200160038201548152505081526020019060010190610619565b505050509050600061070d8488610ab0565b90508082828151811061072257610722611033565b6020026020010151606001511415610784578582828151811061074757610747611033565b60200260200101516020015161075d9190610f30565b82828151811061076f5761076f611033565b602002602001015160200181815250506107fd565b600085815260046020818152604080842081516080810183528981528084018c90529182018a90526060820186905280546001810182559085529382902081518051929590940201926107db928492910190610b94565b5060208201518160010155604082015181600201556060820151816003015550505b604080513381526001600160a01b0389166020820152908101869052606081018790527f4d28cfad0257672129fe1fa3798e8c4e6ba3d1195c3f97d327a12cbd96ca988e9060800160405180910390a150505050505050565b6000546001600160a01b0316331461086d57600080fd5b600080546040516001600160a01b03909116907f8be0079c531659141344cd1fd0a4f28419497f9722a3daafe3b4186f6b6457e0908390a36000805473ffffffffffffffffffffffffffffffffffffffff19169055565b6001543410156108d6576108d6611007565b600080546001546040516001600160a01b039092169283926108fc8315029291818181858888f19350505050158015610913573d6000803e3d6000fd5b50600061091f86610ae4565b6040805160c081018252888152871515602080830191909152818301889052606082018890526080820187905260a082018490523360009081526002825292909220815180519495509193909261097a928492910190610b94565b506020828101516001830180547fffffffffffffffffffffffffffffffffffffffffffffffffffffffffffffff0016911515919091179055604080840151600284015560608401516003808501919091556080850151600485015560a09094015160059093019290925560008481529290529081902080543373ffffffffffffffffffffffffffffffffffffffff19909116811790915590517e78dab93f1aeefc09535aa58402d91dde97c29a340cd7a0a57e12529c94e21491610a419189908590610e93565b60405180910390a1505050505050565b60008281526003602052604090205482906001600160a01b03163314610a7657600080fd5b503360009081526002602052604090206004015550565b6000546001600160a01b03163314610aa457600080fd5b610aad81610b19565b50565b60008282604051602001610ac5929190610e1d565b60408051601f1981840301815291905280516020909101209392505050565b6000813342604051602001610afb93929190610e54565b60408051601f19818403018152919052805160209091012092915050565b6001600160a01b038116610b2c57600080fd5b600080546040516001600160a01b03808516939216917f8be0079c531659141344cd1fd0a4f28419497f9722a3daafe3b4186f6b6457e091a36000805473ffffffffffffffffffffffffffffffffffffffff19166001600160a01b0392909216919091179055565b828054610ba090610fcc565b90600052602060002090601f016020900481019282610bc25760008555610c08565b82601f10610bdb57805160ff1916838001178555610c08565b82800160010185558215610c08579182015b82811115610c08578251825591602001919060010190610bed565b50610c14929150610c18565b5090565b5b80821115610c145760008155600101610c19565b80356001600160a01b0381168114610c4457600080fd5b919050565b600082601f830112610c5a57600080fd5b813567ffffffffffffffff80821115610c7557610c75611049565b604051601f8301601f19908116603f01168101908282118183101715610c9d57610c9d611049565b81604052838152866020858801011115610cb657600080fd5b836020870160208301376000602085830101528094505050505092915050565b600060208284031215610ce857600080fd5b61046c82610c2d565b60008060008060808587031215610d0757600080fd5b610d1085610c2d565b93506020850135925060408501359150606085013567ffffffffffffffff811115610d3a57600080fd5b610d4687828801610c49565b91505092959194509250565b60008060008060808587031215610d6857600080fd5b843567ffffffffffffffff811115610d7f57600080fd5b610d8b87828801610c49565b94505060208501358015158114610da157600080fd5b93969395505050506040820135916060013590565b600060208284031215610dc857600080fd5b5035919050565b60008060408385031215610de257600080fd5b50508035926020909101359150565b60008151808452610e09816020860160208601610f9c565b601f01601f19169290920160200192915050565b60008351610e2f818460208801610f9c565b60609390931b6bffffffffffffffffffffffff19169190920190815260140192915050565b60008451610e66818460208901610f9c565b60609490941b6bffffffffffffffffffffffff191691909301908152601481019190915260340192915050565b6001600160a01b0384168152606060208201526000610eb56060830185610df1565b9050826040830152949350505050565b60c081526000610ed860c0830189610df1565b96151560208301525060408101949094526060840192909252608083015260a090910152919050565b608081526000610f146080830187610df1565b6020830195909552506040810192909252606090910152919050565b60008219821115610f4357610f4361101d565b500190565b6000817fffffffffffffffffffffffffffffffffffffffffffffffffffffffffffffffff0483118215151615610f8057610f8061101d565b500290565b600082821015610f9757610f9761101d565b500390565b60005b83811015610fb7578181015183820152602001610f9f565b83811115610fc6576000848401525b50505050565b600181811c90821680610fe057607f821691505b6020821081141561100157634e487b7160e01b600052602260045260246000fd5b50919050565b634e487b7160e01b600052600160045260246000fd5b634e487b7160e01b600052601160045260246000fd5b634e487b7160e01b600052603260045260246000fd5b634e487b7160e01b600052604160045260246000fdfea2646970667358221220d34739f00624cb270b94b3c2f7cea1c38b14dce6710d67fcfc0da129cbd9243064736f6c63430008060033",
    "sourcePath": "/Users/lukassteiner/Desktop/solidity/equity-dapp/contracts/EquityContract.sol",
    "compiler": {
        "name": "solc",
        "version": "0.8.6+commit.11564f7e"
    },
    "functionHashes": {
        "companyIdToOwner(uint256)": "7901604a",
        "companyRegistractionFee()": "8f8d8a95",
        "companyShareholders(uint256,uint256)": "1cd322c1",
        "createCompany(string,bool,uint256,uint256)": "8e5ae3b5",
        "getMarketCap(uint256)": "283c9c31",
        "isOwner()": "8f32d59b",
        "owner()": "8da5cb5b",
        "ownerToCompany(address)": "05a0860f",
        "renounceOwnership()": "715018a6",
        "setSharePrice(uint256,uint256)": "a9a4b776",
        "transferOwnership(address)": "f2fde38b",
        "transferSharesCompanyToShareholder(address,uint256,uint256,string)": "36a16c5d"
    },
    "gasEstimates": {
        "creation": {
            "codeDepositCost": "849000",
            "executionCost": "48757",
            "totalCost": "897757"
        },
        "external": {
            "companyIdToOwner(uint256)": "2544",
            "companyRegistractionFee()": "2317",
            "companyShareholders(uint256,uint256)": "infinite",
            "createCompany(string,bool,uint256,uint256)": "infinite",
            "getMarketCap(uint256)": "6933",
            "isOwner()": "2376",
            "owner()": "2354",
            "ownerToCompany(address)": "infinite",
            "renounceOwnership()": "30198",
            "setSharePrice(uint256,uint256)": "24681",
            "transferOwnership(address)": "30483",
            "transferSharesCompanyToShareholder(address,uint256,uint256,string)": "infinite"
        },
        "internal": {
            "_generateRandomId(string memory)": "infinite",
            "_generateShareholderId(string memory,address)": "infinite"
        }
    }
}